{
  "_format": "hh-sol-artifact-1",
  "contractName": "Sample1",
  "sourceName": "contracts/sample1.sol",
  "abi": [
    {
      "inputs": [],
      "payable": false,
      "stateMutability": "nonpayable",
      "type": "constructor"
    },
    {
      "anonymous": false,
      "inputs": [
        {
          "indexed": true,
          "internalType": "address",
          "name": "owner",
          "type": "address"
        },
        {
          "indexed": true,
          "internalType": "address",
          "name": "spender",
          "type": "address"
        },
        {
          "indexed": false,
          "internalType": "uint256",
          "name": "value",
          "type": "uint256"
        }
      ],
      "name": "Approval",
      "type": "event"
    },
    {
      "anonymous": false,
      "inputs": [
        {
          "indexed": true,
          "internalType": "address",
          "name": "previousOwner",
          "type": "address"
        },
        {
          "indexed": true,
          "internalType": "address",
          "name": "newOwner",
          "type": "address"
        }
      ],
      "name": "OwnershipTransferred",
      "type": "event"
    },
    {
      "anonymous": false,
      "inputs": [
        {
          "indexed": true,
          "internalType": "address",
          "name": "from",
          "type": "address"
        },
        {
          "indexed": true,
          "internalType": "address",
          "name": "to",
          "type": "address"
        },
        {
          "indexed": false,
          "internalType": "uint256",
          "name": "value",
          "type": "uint256"
        }
      ],
      "name": "Transfer",
      "type": "event"
    },
    {
      "anonymous": false,
      "inputs": [
        {
          "indexed": false,
          "internalType": "address",
          "name": "user",
          "type": "address"
        },
        {
          "indexed": false,
          "internalType": "uint256",
          "name": "amount",
          "type": "uint256"
        }
      ],
      "name": "deposited",
      "type": "event"
    },
    {
      "anonymous": false,
      "inputs": [
        {
          "indexed": false,
          "internalType": "address",
          "name": "user",
          "type": "address"
        },
        {
          "indexed": false,
          "internalType": "uint256",
          "name": "yAmount",
          "type": "uint256"
        }
      ],
      "name": "withdrawn",
      "type": "event"
    },
    {
      "constant": true,
      "inputs": [],
      "name": "admin",
      "outputs": [
        {
          "internalType": "address",
          "name": "",
          "type": "address"
        }
      ],
      "payable": false,
      "stateMutability": "view",
      "type": "function"
    },
    {
      "constant": true,
      "inputs": [
        {
          "internalType": "address",
          "name": "owner",
          "type": "address"
        },
        {
          "internalType": "address",
          "name": "spender",
          "type": "address"
        }
      ],
      "name": "allowance",
      "outputs": [
        {
          "internalType": "uint256",
          "name": "",
          "type": "uint256"
        }
      ],
      "payable": false,
      "stateMutability": "view",
      "type": "function"
    },
    {
      "constant": false,
      "inputs": [
        {
          "internalType": "address",
          "name": "spender",
          "type": "address"
        },
        {
          "internalType": "uint256",
          "name": "amount",
          "type": "uint256"
        }
      ],
      "name": "approve",
      "outputs": [
        {
          "internalType": "bool",
          "name": "",
          "type": "bool"
        }
      ],
      "payable": false,
      "stateMutability": "nonpayable",
      "type": "function"
    },
    {
      "constant": true,
      "inputs": [
        {
          "internalType": "address",
          "name": "account",
          "type": "address"
        }
      ],
      "name": "balanceOf",
      "outputs": [
        {
          "internalType": "uint256",
          "name": "",
          "type": "uint256"
        }
      ],
      "payable": false,
      "stateMutability": "view",
      "type": "function"
    },
    {
      "constant": true,
      "inputs": [],
      "name": "decimals",
      "outputs": [
        {
          "internalType": "uint8",
          "name": "",
          "type": "uint8"
        }
      ],
      "payable": false,
      "stateMutability": "view",
      "type": "function"
    },
    {
      "constant": false,
      "inputs": [
        {
          "internalType": "address",
          "name": "spender",
          "type": "address"
        },
        {
          "internalType": "uint256",
          "name": "subtractedValue",
          "type": "uint256"
        }
      ],
      "name": "decreaseAllowance",
      "outputs": [
        {
          "internalType": "bool",
          "name": "",
          "type": "bool"
        }
      ],
      "payable": false,
      "stateMutability": "nonpayable",
      "type": "function"
    },
    {
      "constant": false,
      "inputs": [],
      "name": "deposit",
      "outputs": [],
      "payable": true,
      "stateMutability": "payable",
      "type": "function"
    },
    {
      "constant": false,
      "inputs": [
        {
          "internalType": "address",
          "name": "spender",
          "type": "address"
        },
        {
          "internalType": "uint256",
          "name": "addedValue",
          "type": "uint256"
        }
      ],
      "name": "increaseAllowance",
      "outputs": [
        {
          "internalType": "bool",
          "name": "",
          "type": "bool"
        }
      ],
      "payable": false,
      "stateMutability": "nonpayable",
      "type": "function"
    },
    {
      "constant": true,
      "inputs": [],
      "name": "name",
      "outputs": [
        {
          "internalType": "string",
          "name": "",
          "type": "string"
        }
      ],
      "payable": false,
      "stateMutability": "view",
      "type": "function"
    },
    {
      "constant": true,
      "inputs": [],
      "name": "owner",
      "outputs": [
        {
          "internalType": "address",
          "name": "",
          "type": "address"
        }
      ],
      "payable": false,
      "stateMutability": "view",
      "type": "function"
    },
    {
      "constant": false,
      "inputs": [],
      "name": "renounceOwnership",
      "outputs": [],
      "payable": false,
      "stateMutability": "nonpayable",
      "type": "function"
    },
    {
      "constant": true,
      "inputs": [],
      "name": "symbol",
      "outputs": [
        {
          "internalType": "string",
          "name": "",
          "type": "string"
        }
      ],
      "payable": false,
      "stateMutability": "view",
      "type": "function"
    },
    {
      "constant": true,
      "inputs": [],
      "name": "totalSupply",
      "outputs": [
        {
          "internalType": "uint256",
          "name": "",
          "type": "uint256"
        }
      ],
      "payable": false,
      "stateMutability": "view",
      "type": "function"
    },
    {
      "constant": false,
      "inputs": [
        {
          "internalType": "address",
          "name": "recipient",
          "type": "address"
        },
        {
          "internalType": "uint256",
          "name": "amount",
          "type": "uint256"
        }
      ],
      "name": "transfer",
      "outputs": [
        {
          "internalType": "bool",
          "name": "",
          "type": "bool"
        }
      ],
      "payable": false,
      "stateMutability": "nonpayable",
      "type": "function"
    },
    {
      "constant": false,
      "inputs": [
        {
          "internalType": "address",
          "name": "sender",
          "type": "address"
        },
        {
          "internalType": "address",
          "name": "recipient",
          "type": "address"
        },
        {
          "internalType": "uint256",
          "name": "amount",
          "type": "uint256"
        }
      ],
      "name": "transferFrom",
      "outputs": [
        {
          "internalType": "bool",
          "name": "",
          "type": "bool"
        }
      ],
      "payable": false,
      "stateMutability": "nonpayable",
      "type": "function"
    },
    {
      "constant": false,
      "inputs": [
        {
          "internalType": "address",
          "name": "newOwner",
          "type": "address"
        }
      ],
      "name": "transferOwnership",
      "outputs": [],
      "payable": false,
      "stateMutability": "nonpayable",
      "type": "function"
    },
    {
      "constant": true,
      "inputs": [
        {
          "internalType": "address",
          "name": "",
          "type": "address"
        }
      ],
      "name": "wallet",
      "outputs": [
        {
          "internalType": "uint256",
          "name": "",
          "type": "uint256"
        }
      ],
      "payable": false,
      "stateMutability": "view",
      "type": "function"
    },
    {
      "constant": false,
      "inputs": [
        {
          "internalType": "uint256",
          "name": "yAmount",
          "type": "uint256"
        }
      ],
      "name": "withdraw",
      "outputs": [],
      "payable": false,
      "stateMutability": "nonpayable",
      "type": "function"
    }
  ],
  "bytecode": "0x60806040523480156200001157600080fd5b50604051806040016040528060038152602001620b2a8960eb1b815250604051806040016040528060038152602001620b2a8960eb1b8152506200006d6200005e620000b360201b60201c565b6001600160e01b03620000b816565b81516200008290600490602085019062000108565b5080516200009890600590602084019062000108565b5050600680546001600160a01b0319163317905550620001aa565b335b90565b600080546001600160a01b038381166001600160a01b0319831681178455604051919092169283917f8be0079c531659141344cd1fd0a4f28419497f9722a3daafe3b4186f6b6457e09190a35050565b828054600181600116156101000203166002900490600052602060002090601f016020900481019282601f106200014b57805160ff19168380011785556200017b565b828001600101855582156200017b579182015b828111156200017b5782518255916020019190600101906200015e565b50620001899291506200018d565b5090565b620000b591905b8082111562000189576000815560010162000194565b61124880620001ba6000396000f3fe6080604052600436106101095760003560e01c80638da5cb5b11610095578063a9059cbb11610064578063a9059cbb146103d9578063d0e30db014610412578063dd62ed3e1461041a578063f2fde38b14610455578063f851a4401461048857610109565b80638da5cb5b1461032757806395d89b4114610358578063a457c2d71461036d578063a56cc439146103a657610109565b80632e1a7d4d116100dc5780632e1a7d4d1461024f578063313ce5671461027b57806339509351146102a657806370a08231146102df578063715018a61461031257610109565b806306fdde031461010e578063095ea7b31461019857806318160ddd146101e557806323b872dd1461020c575b600080fd5b34801561011a57600080fd5b5061012361049d565b6040805160208082528351818301528351919283929083019185019080838360005b8381101561015d578181015183820152602001610145565b50505050905090810190601f16801561018a5780820380516001836020036101000a031916815260200191505b509250505060405180910390f35b3480156101a457600080fd5b506101d1600480360360408110156101bb57600080fd5b506001600160a01b038135169060200135610533565b604080519115158252519081900360200190f35b3480156101f157600080fd5b506101fa610550565b60408051918252519081900360200190f35b34801561021857600080fd5b506101d16004803603606081101561022f57600080fd5b506001600160a01b03813581169160208101359091169060400135610556565b34801561025b57600080fd5b506102796004803603602081101561027257600080fd5b5035610605565b005b34801561028757600080fd5b50610290610612565b6040805160ff9092168252519081900360200190f35b3480156102b257600080fd5b506101d1600480360360408110156102c957600080fd5b506001600160a01b038135169060200135610617565b3480156102eb57600080fd5b506101fa6004803603602081101561030257600080fd5b50356001600160a01b0316610662565b34801561031e57600080fd5b5061027961067d565b34801561033357600080fd5b5061033c6106fd565b604080516001600160a01b039092168252519081900360200190f35b34801561036457600080fd5b5061012361070c565b34801561037957600080fd5b506101d16004803603604081101561039057600080fd5b506001600160a01b03813516906020013561076d565b3480156103b257600080fd5b506101fa600480360360208110156103c957600080fd5b50356001600160a01b0316610805565b3480156103e557600080fd5b506101d1600480360360408110156103fc57600080fd5b506001600160a01b038135169060200135610817565b61027961082b565b34801561042657600080fd5b506101fa6004803603604081101561043d57600080fd5b506001600160a01b0381358116916020013516610885565b34801561046157600080fd5b506102796004803603602081101561047857600080fd5b50356001600160a01b03166108b0565b34801561049457600080fd5b5061033c610972565b60048054604080516020601f60026000196101006001881615020190951694909404938401819004810282018101909252828152606093909290918301828280156105295780601f106104fe57610100808354040283529160200191610529565b820191906000526020600020905b81548152906001019060200180831161050c57829003601f168201915b5050505050905090565b6000610547610540610981565b8484610985565b50600192915050565b60035490565b6001600160a01b0383166000908152600260205260408120819081610579610981565b6001600160a01b03166001600160a01b03168152602001908152602001600020549050828110156105db5760405162461bcd60e51b815260040180806020018281038252602881526020018061115d6028913960400191505060405180910390fd5b6105ef856105e7610981565b858403610985565b6105fa858585610a71565b506001949350505050565b61060f3382610bd4565b50565b601290565b6000610547610624610981565b848460026000610632610981565b6001600160a01b03908116825260208083019390935260409182016000908120918b168152925290205401610985565b6001600160a01b031660009081526001602052604090205490565b610685610981565b6001600160a01b03166106966106fd565b6001600160a01b0316146106f1576040805162461bcd60e51b815260206004820181905260248201527f4f776e61626c653a2063616c6c6572206973206e6f7420746865206f776e6572604482015290519081900360640190fd5b6106fb6000610d37565b565b6000546001600160a01b031690565b60058054604080516020601f60026000196101006001881615020190951694909404938401819004810282018101909252828152606093909290918301828280156105295780601f106104fe57610100808354040283529160200191610529565b6000806002600061077c610981565b6001600160a01b03908116825260208083019390935260409182016000908120918816815292529020549050828110156107e75760405162461bcd60e51b81526004018080602001828103825260258152602001806111ef6025913960400191505060405180910390fd5b6107fb6107f2610981565b85858403610985565b5060019392505050565b60076020526000908152604090205481565b6000610547610824610981565b8484610a71565b6006546001600160a01b0316331461087b576040805162461bcd60e51b815260206004820152600e60248201526d27b7363c9037bbb732b91031b0b760911b604482015290519081900360640190fd5b6106fb3334610d87565b6001600160a01b03918216600090815260026020908152604080832093909416825291909152205490565b6108b8610981565b6001600160a01b03166108c96106fd565b6001600160a01b031614610924576040805162461bcd60e51b815260206004820181905260248201527f4f776e61626c653a2063616c6c6572206973206e6f7420746865206f776e6572604482015290519081900360640190fd5b6001600160a01b0381166109695760405162461bcd60e51b81526004018080602001828103825260268152602001806110ef6026913960400191505060405180910390fd5b61060f81610d37565b6006546001600160a01b031681565b3390565b6001600160a01b0383166109ca5760405162461bcd60e51b81526004018080602001828103825260248152602001806111cb6024913960400191505060405180910390fd5b6001600160a01b038216610a0f5760405162461bcd60e51b81526004018080602001828103825260228152602001806111156022913960400191505060405180910390fd5b6001600160a01b03808416600081815260026020908152604080832094871680845294825291829020859055815185815291517f8c5be1e5ebec7d5bd14f71427d1e84f3dd0314c0f7b2291e5b200ac8c7c3b9259281900390910190a3505050565b6001600160a01b038316610ab65760405162461bcd60e51b81526004018080602001828103825260258152602001806111a66025913960400191505060405180910390fd5b6001600160a01b038216610afb5760405162461bcd60e51b81526004018080602001828103825260238152602001806110aa6023913960400191505060405180910390fd5b610b06838383610eb6565b6001600160a01b03831660009081526001602052604090205481811015610b5e5760405162461bcd60e51b81526004018080602001828103825260268152602001806111376026913960400191505060405180910390fd5b6001600160a01b0380851660008181526001602090815260408083208787039055938716808352918490208054870190558351868152935191937fddf252ad1be2c89b69c2b068fc378daa952ba7f163c4a11628f55a4df523b3ef929081900390910190a3610bce848484610eb6565b50505050565b6001600160a01b038216610c26576040805162461bcd60e51b8152602060048201526014602482015273557365722063616e206e6f74206265207a65726f60601b604482015290519081900360640190fd5b80610c74576040805162461bcd60e51b8152602060048201526019602482015278616d6f756e742073686f756c64206e6f74206265207a65726f60381b604482015290519081900360640190fd5b6001600160a01b038216600090815260076020526040902054610c9d908263ffffffff610ebb16565b6001600160a01b038316600081815260076020526040808220939093559151909183156108fc02918491818181858888f19350505050158015610ce4573d6000803e3d6000fd5b50610cef8282610ec0565b604080516001600160a01b03841681526020810183905281517f6fb24f3ad0678f9d138e80b17293be051d87911eb34e9e60f0d1b9c3805e885a929181900390910190a15050565b600080546001600160a01b038381166001600160a01b0319831681178455604051919092169283917f8be0079c531659141344cd1fd0a4f28419497f9722a3daafe3b4186f6b6457e09190a35050565b6001600160a01b038216610dd9576040805162461bcd60e51b8152602060048201526014602482015273557365722063616e206e6f74206265207a65726f60601b604482015290519081900360640190fd5b80610e27576040805162461bcd60e51b8152602060048201526019602482015278616d6f756e742073686f756c64206e6f74206265207a65726f60381b604482015290519081900360640190fd5b610e318282610fd3565b6001600160a01b038216600090815260076020526040902054610e5a908263ffffffff6110a516565b6001600160a01b03831660008181526007602090815260409182902093909355805191825291810183905281517f688e89c1496876b0d792df75671fbe827183660b170bb8983d82511a6a4b7d1b929181900390910190a15050565b505050565b900390565b6001600160a01b038216610f055760405162461bcd60e51b81526004018080602001828103825260218152602001806111856021913960400191505060405180910390fd5b610f1182600083610eb6565b6001600160a01b03821660009081526001602052604090205481811015610f695760405162461bcd60e51b81526004018080602001828103825260228152602001806110cd6022913960400191505060405180910390fd5b6001600160a01b03831660008181526001602090815260408083208686039055600380548790039055805186815290519293927fddf252ad1be2c89b69c2b068fc378daa952ba7f163c4a11628f55a4df523b3ef929181900390910190a3610eb683600084610eb6565b6001600160a01b03821661102e576040805162461bcd60e51b815260206004820152601f60248201527f45524332303a206d696e7420746f20746865207a65726f206164647265737300604482015290519081900360640190fd5b61103a60008383610eb6565b60038054820190556001600160a01b0382166000818152600160209081526040808320805486019055805185815290517fddf252ad1be2c89b69c2b068fc378daa952ba7f163c4a11628f55a4df523b3ef929181900390910190a36110a160008383610eb6565b5050565b019056fe45524332303a207472616e7366657220746f20746865207a65726f206164647265737345524332303a206275726e20616d6f756e7420657863656564732062616c616e63654f776e61626c653a206e6577206f776e657220697320746865207a65726f206164647265737345524332303a20617070726f766520746f20746865207a65726f206164647265737345524332303a207472616e7366657220616d6f756e7420657863656564732062616c616e636545524332303a207472616e7366657220616d6f756e74206578636565647320616c6c6f77616e636545524332303a206275726e2066726f6d20746865207a65726f206164647265737345524332303a207472616e736665722066726f6d20746865207a65726f206164647265737345524332303a20617070726f76652066726f6d20746865207a65726f206164647265737345524332303a2064656372656173656420616c6c6f77616e63652062656c6f77207a65726fa265627a7a7231582031aef4132448cda6e045b37841bcefa8cad3502315173136a6207b2596cabb3964736f6c63430005100032",
  "linkReferences": {},
  "deployedLinkReferences": {}
}