{
  "_format": "hh-sol-artifact-1",
  "contractName": "CoinWallet",
  "sourceName": "contracts/sample2.sol",
  "abi": [
    {
      "inputs": [],
      "payable": false,
      "stateMutability": "nonpayable",
      "type": "constructor"
    },
    {
      "anonymous": false,
      "inputs": [
        {
          "indexed": false,
          "internalType": "uint256",
          "name": "requested",
          "type": "uint256"
        },
        {
          "indexed": false,
          "internalType": "uint256",
          "name": "Available",
          "type": "uint256"
        }
      ],
      "name": "LessCoins",
      "type": "event"
    },
    {
      "anonymous": false,
      "inputs": [
        {
          "indexed": true,
          "internalType": "address",
          "name": "previousOwner",
          "type": "address"
        },
        {
          "indexed": true,
          "internalType": "address",
          "name": "newOwner",
          "type": "address"
        }
      ],
      "name": "OwnershipTransferred",
      "type": "event"
    },
    {
      "anonymous": false,
      "inputs": [],
      "name": "RecipientNotValid",
      "type": "event"
    },
    {
      "anonymous": false,
      "inputs": [
        {
          "indexed": false,
          "internalType": "address",
          "name": "from",
          "type": "address"
        },
        {
          "indexed": false,
          "internalType": "address",
          "name": "to",
          "type": "address"
        },
        {
          "indexed": false,
          "internalType": "uint256",
          "name": "coins",
          "type": "uint256"
        }
      ],
      "name": "Sent_Coin",
      "type": "event"
    },
    {
      "constant": true,
      "inputs": [
        {
          "internalType": "address",
          "name": "",
          "type": "address"
        }
      ],
      "name": "AvailableCoins",
      "outputs": [
        {
          "internalType": "uint256",
          "name": "",
          "type": "uint256"
        }
      ],
      "payable": false,
      "stateMutability": "view",
      "type": "function"
    },
    {
      "constant": true,
      "inputs": [],
      "name": "CollectorStatus",
      "outputs": [
        {
          "internalType": "enum CoinWallet.Action",
          "name": "",
          "type": "uint8"
        }
      ],
      "payable": false,
      "stateMutability": "view",
      "type": "function"
    },
    {
      "constant": true,
      "inputs": [],
      "name": "DisplayCollectorWallet",
      "outputs": [
        {
          "internalType": "uint256",
          "name": "",
          "type": "uint256"
        }
      ],
      "payable": false,
      "stateMutability": "view",
      "type": "function"
    },
    {
      "constant": true,
      "inputs": [],
      "name": "DisplayRecipientWallet",
      "outputs": [
        {
          "internalType": "uint256",
          "name": "",
          "type": "uint256"
        }
      ],
      "payable": false,
      "stateMutability": "view",
      "type": "function"
    },
    {
      "constant": false,
      "inputs": [
        {
          "internalType": "address",
          "name": "_collector",
          "type": "address"
        },
        {
          "internalType": "uint256",
          "name": "coins",
          "type": "uint256"
        }
      ],
      "name": "MineCoins",
      "outputs": [],
      "payable": false,
      "stateMutability": "nonpayable",
      "type": "function"
    },
    {
      "constant": true,
      "inputs": [],
      "name": "Miner",
      "outputs": [
        {
          "internalType": "address",
          "name": "",
          "type": "address"
        }
      ],
      "payable": false,
      "stateMutability": "view",
      "type": "function"
    },
    {
      "constant": true,
      "inputs": [],
      "name": "RecipientStatus",
      "outputs": [
        {
          "internalType": "enum CoinWallet.Action",
          "name": "",
          "type": "uint8"
        }
      ],
      "payable": false,
      "stateMutability": "view",
      "type": "function"
    },
    {
      "constant": false,
      "inputs": [
        {
          "internalType": "address",
          "name": "_recipient",
          "type": "address"
        },
        {
          "internalType": "uint256",
          "name": "coins",
          "type": "uint256"
        }
      ],
      "name": "Send_Coins",
      "outputs": [],
      "payable": false,
      "stateMutability": "nonpayable",
      "type": "function"
    },
    {
      "constant": false,
      "inputs": [
        {
          "internalType": "address",
          "name": "newAddress",
          "type": "address"
        }
      ],
      "name": "doWhitelist",
      "outputs": [],
      "payable": false,
      "stateMutability": "nonpayable",
      "type": "function"
    },
    {
      "constant": true,
      "inputs": [],
      "name": "owner",
      "outputs": [
        {
          "internalType": "address",
          "name": "",
          "type": "address"
        }
      ],
      "payable": false,
      "stateMutability": "view",
      "type": "function"
    },
    {
      "constant": false,
      "inputs": [],
      "name": "renounceOwnership",
      "outputs": [],
      "payable": false,
      "stateMutability": "nonpayable",
      "type": "function"
    },
    {
      "constant": false,
      "inputs": [
        {
          "internalType": "address",
          "name": "newOwner",
          "type": "address"
        }
      ],
      "name": "transferOwnership",
      "outputs": [],
      "payable": false,
      "stateMutability": "nonpayable",
      "type": "function"
    },
    {
      "constant": true,
      "inputs": [
        {
          "internalType": "address",
          "name": "",
          "type": "address"
        }
      ],
      "name": "usersWhitelisted",
      "outputs": [
        {
          "internalType": "bool",
          "name": "",
          "type": "bool"
        }
      ],
      "payable": false,
      "stateMutability": "view",
      "type": "function"
    }
  ],
  "bytecode": "0x608060405234801561001057600080fd5b506100336100256001600160e01b0361004a16565b6001600160e01b0361004e16565b600180546001600160a01b0319163317905561009e565b3390565b600080546001600160a01b038381166001600160a01b0319831681178455604051919092169283917f8be0079c531659141344cd1fd0a4f28419497f9722a3daafe3b4186f6b6457e09190a35050565b6107f4806100ad6000396000f3fe608060405234801561001057600080fd5b50600436106100cf5760003560e01c80638d18ce7a1161008c578063b2169d3211610066578063b2169d32146101d6578063c78aa3ed146101de578063f2fde38b14610218578063fdd7645b1461023e576100cf565b80638d18ce7a1461019a5780638da5cb5b146101c6578063aeaa76a1146101ce576100cf565b806302abb4c5146100d457806307b8e309146100f857806314047db2146101125780633dc2ed8414610140578063715018a614610166578063809e64321461016e575b600080fd5b6100dc610264565b604080516001600160a01b039092168252519081900360200190f35b610100610273565b60408051918252519081900360200190f35b61013e6004803603604081101561012857600080fd5b506001600160a01b038135169060200135610292565b005b61013e6004803603602081101561015657600080fd5b50356001600160a01b0316610473565b61013e610497565b61013e6004803603604081101561018457600080fd5b506001600160a01b038135169060200135610517565b6101a26105ce565b604051808260058111156101b257fe5b60ff16815260200191505060405180910390f35b6100dc6105fe565b61010061060d565b6101a2610620565b610204600480360360208110156101f457600080fd5b50356001600160a01b0316610650565b604080519115158252519081900360200190f35b61013e6004803603602081101561022e57600080fd5b50356001600160a01b0316610665565b6101006004803603602081101561025457600080fd5b50356001600160a01b031661072a565b6001546001600160a01b031681565b6005546001600160a01b03166000908152600360205260409020545b90565b3360009081526002602052604090205460ff1615156001146102fb576040805162461bcd60e51b815260206004820152601760248201527f75736572206973206e6f742077686974656c6973746564000000000000000000604482015290519081900360640190fd5b600580546001600160a01b0319166001600160a01b0384161790553360009081526003602052604090205481111561037857336000908152600360209081526040918290205482518481529182015281517f12417db933a788e8d49710b7a848c3af61806f8b92ed7f135bab62b2f9ef029f929181900390910190a15b6005546001600160a01b03163314156103b5576040517f523fe4c1d1ef88405059a0bb457755ef9ded9cec64e9924f2430ceb973e4a7b090600090a15b336000908152600360205260409020546103d5908263ffffffff61073c16565b33600090815260036020526040808220929092556005546001600160a01b031681522054610409908263ffffffff61074116565b600580546001600160a01b039081166000908152600360209081526040918290209490945591548251338152911692810192909252818101839052517fb2faa35c6b61a063399b3a981f474e015bc1a2e695c43a225955844e1694c0f39181900360600190a15050565b6001600160a01b03166000908152600260205260409020805460ff19166001179055565b61049f610745565b6001600160a01b03166104b06105fe565b6001600160a01b03161461050b576040805162461bcd60e51b815260206004820181905260248201527f4f776e61626c653a2063616c6c6572206973206e6f7420746865206f776e6572604482015290519081900360640190fd5b6105156000610749565b565b600480546001600160a01b0319166001600160a01b0384811691909117909155600154163314610584576040805162461bcd60e51b81526020600482015260136024820152724f6e6c79204d696e65722063616e204d696e6560681b604482015290519081900360640190fd5b6004546001600160a01b03166000908152600360205260409020546105af908263ffffffff61074116565b6004546001600160a01b03166000908152600360205260409020555050565b6005546001600160a01b0316600090815260036020526040812054156105f65750600261028f565b50600361028f565b6000546001600160a01b031690565b3360009081526003602052604090205490565b6004546001600160a01b0316600090815260036020526040812054156106485750600061028f565b50600161028f565b60026020526000908152604090205460ff1681565b61066d610745565b6001600160a01b031661067e6105fe565b6001600160a01b0316146106d9576040805162461bcd60e51b815260206004820181905260248201527f4f776e61626c653a2063616c6c6572206973206e6f7420746865206f776e6572604482015290519081900360640190fd5b6001600160a01b03811661071e5760405162461bcd60e51b815260040180806020018281038252602681526020018061079a6026913960400191505060405180910390fd5b61072781610749565b50565b60036020526000908152604090205481565b900390565b0190565b3390565b600080546001600160a01b038381166001600160a01b0319831681178455604051919092169283917f8be0079c531659141344cd1fd0a4f28419497f9722a3daafe3b4186f6b6457e09190a3505056fe4f776e61626c653a206e6577206f776e657220697320746865207a65726f2061646472657373a265627a7a7231582091365edcc3e79adf478deaf18c5596dd931751d3108d94976201ef36fea1842764736f6c63430005100032",
  "linkReferences": {},
  "deployedLinkReferences": {}
}